:1000000010C01FC01EC01DC01CC01BC01AC019C01C
:1000100018C017C016C015C014C013C012C011C03C
:100020009BC011241FBECFE5D1E0DEBFCDBF20E0D5
:10003000A0E6B0E001C01D92A036B207E1F769D09A
:10004000A9C0DECF90E0181619066CF420E030E06D
:10005000E7E8F3E13197F1F700C000002F5F3F4F71
:1000600028173907ACF30895EF92FF920F931F936F
:10007000CF93DF93F62E2CB7062F021B10E0B801AA
:1000800075D0E62E1016110674F4C0E0D0E08E2D67
:10009000D9DF9CB79F1518F48CB78F5F8CBF219662
:1000A000C017D107A4F3DF91CF911F910F91FF905B
:1000B000EF900895EF92FF920F931F93CF93DF93EA
:1000C000F62E0CB7061B10E0B80150D0E62E101625
:1000D000110674F4C0E0D0E08E2DB4DF9CB7F916A1
:1000E00018F48CB781508CBF2196C017D107A4F3A8
:1000F000DF91CF911F910F91FF90EF900895D79AC4
:1001000080B7816280BF83B7856083BF1CBEDF9AE2
:10011000089517BA1ABA18BA1BBAD39ADB98EFDF48
:100120002AE230E58EEF90E0215030408040904050
:10013000D9F700006EEF88E893E196DF2FE736E904
:1001400088E9215030408040E1F700C0000060E0C5
:1001500088E893E1AFDFE4CF1F920F920FB60F92C2
:1001600011240F900FBE0F901F901895AA1BBB1B58
:1001700051E107C0AA1FBB1FA617B70710F0A61BA7
:10018000B70B881F991F5A95A9F780959095BC01C8
:08019000CD010895F894FFCFA2
:00000001FF
